:020000040800F2
:10000000001000204D0600085504000857040008A1
:1000100000000000000000000000000000000000E0
:10002000000000000000000000000000590400086B
:1000300000000000000000005B0400085D040008F0
:100040009D060008000000009D0600089D060008AF
:100050009D0600089D0600089D0600089D060008F4
:10006000000000009D0600089D0600089D0600088F
:100070009D0600089D0600089D060008000000007F
:100080009D06000800000000000000009D0600081A
:10009000000000009D0600089D0600089D0600085F
:1000A000000000009D060008000000009D060008FA
:1000B0000000000000000000000000000000000040
:1000C000002243088B4274D303098B425FD3030A97
:1000D0008B4244D3030B8B4228D3030C8B420DD3AA
:1000E000FF22090212BA030C8B4202D31212090238
:1000F00065D0030B8B4219D300E0090AC30B8B4276
:1001000001D3CB03C01A5241830B8B4201D38B0323
:10011000C01A5241430B8B4201D34B03C01A5241C8
:10012000030B8B4201D30B03C01A5241C30A8B420B
:1001300001D3CB02C01A5241830A8B4201D38B02F6
:10014000C01A5241430A8B4201D34B02C01A52419A
:10015000030A8B4201D30B02C01A5241CDD2C3090C
:100160008B4201D3CB01C01A524183098B4201D388
:100170008B01C01A524143098B4201D34B01C01A73
:10018000524103098B4201D30B01C01A5241C308EB
:100190008B4201D3CB00C01A524183088B4201D35A
:1001A0008B00C01A524143088B4201D34B00C01A46
:1001B0005241411A00D20146524110467047FFE7B2
:1001C00001B5002000F006F802BDC0460029F7D0B6
:1001D00076E770477047C0460448054B10B5834228
:1001E00003D0044B002B00D0984710BD1000002016
:1001F000100000200000000006480749091A8B1073
:10020000C90FC91810B5491003D0044B002B00D0FA
:10021000984710BD100000201000002000000000D2
:1002200010B5074C2378002B09D1FFF7D5FF054BFC
:10023000002B02D0044800E000BF0123237010BD52
:100240001000002000000000541E0008054B10B5EF
:10025000002B03D00449054800E000BFFFF7CCFFA6
:1002600010BDC0460000000014000020541E00080D
:1002700000B585B00C22002101A801F0F3FC1E4856
:100280001E4B0360002343608360C3600122026150
:1002900004214161037643768376C376C221FF3120
:1002A000C16103629E39FF394354826200F042FA11
:1002B000002817D10023019380235B010293802340
:1002C0005B0503930C4801A900F0F6FA00280CD155
:1002D00001230193084801A900F0EEFA002807D194
:1002E00005B000BD00F052F8E4E700F04FF8EFE78A
:1002F00000F04CF8F4E7C0462C0000200024014038
:1003000010B588B004001422002103A801F0AAFC53
:100310002268104B9A4201D008B010BD0E4B9A696A
:10032000802189000A439A619A690A400192019AE0
:100330005A69802189020A435A615B690B40029322
:10034000029B032303930493902003A9C00500F0AC
:1003500099FBE1E7002401400010024082B00A4B03
:100360005A698021C9030A435A615A690A400092B6
:10037000009A5A69802189020A435A615B690B40DD
:100380000193019B02B070470010024072B6FEE775
:1003900010B594B03022002108A801F063FC1024AD
:1003A0001022002104A801F05DFC10220021684603
:1003B00001F058FC12230893113B0B930D930C94FE
:1003C0000E9408A800F022FC002816D107230493FD
:1003D0000023059306930793002104A800F08EFEE6
:1003E00000280CD10123009300230293684600F0FB
:1003F00035FF002805D114B010BDFFF7C7FFFFF788
:10040000C5FFFFF7C3FF10B500F072F9FFF7C0FF9B
:10041000FFF7A4FFFFF72CFF00F066F800F0C4F828
:10042000FEE7000082B00A4B9969012211439961ED
:1004300099690A400092009ADA69802149050A43C5
:10044000DA61DB690B400193019B02B07047C04643
:1004500000100240FEE7FEE77047704710B500F05D
:1004600057F910BD7047000082B00268074B9A42EE
:1004700001D002B07047064B9A69802109010A43F6
:100480009A619B690B400193019BF2E7002C0140AC
:100490000010024010B586B004001422002101A80B
:1004A00001F0E0FB22680E4B9A4201D006B010BD6D
:1004B0000C4B5A69802189020A435A615B690B40DF
:1004C0000093009B80239B000193FF3BFF3B029323
:1004D0000593902001A9C00500F0D4FAE6E7C046D4
:1004E000002C01400010024000B593B0082200210A
:1004F00010A801F0B7FB1C22002109A801F0B2FBF3
:100500002022002101A801F0ADFB2448244B036008
:10051000002343608360234AC260036143618361B7
:1005200001F026F800282DD10023109311931B48C9
:1005300010A901F0FDF8002827D1602309930023BA
:100540000A930B930C930D930E930F93134804226D
:1005500009A901F075F800281AD10023019302932C
:1005600003930493059380229201069208930B480B
:1005700001A901F00BF900280DD10848FFF78AFF07
:1005800013B000BDFFF702FFCEE7FFF7FFFED4E791
:10059000FFF7FCFEE1E7FFF7F9FEEEE76C00002055
:1005A000002C0140FFFF000010B50C480C4B03600D
:1005B00096231B02436000238360C36003610C2207
:1005C00042618361C3610362436201F015FB00284D
:1005D00000D110BDFFF7DAFEFBE7C046B4000020F3
:1005E0000038014010B588B004001422002103A88F
:1005F00001F038FB2268134B9A4201D008B010BDBD
:10060000114B9A698021C9010A439A619A690A408B
:100610000192019A5A69802189020A435A615B69F1
:100620000B400293029B0C2303930A3B0493013378
:100630000693023B0793902003A9C00500F022FA1D
:10064000DCE7C04600380140001002400D488546F6
:10065000FFF708FF0C480D490D4A002302E0D4586B
:10066000C4500433C4188C42F9D30A4A0A4C0023FC
:1006700001E013600432A242FBD301F047FBFFF715
:10068000C2FEFEE700100020000000201000002045
:10069000B01E000810000020D8020020FEE7000075
:1006A00010B504000F4B1978FA208000FFF708FD01
:1006B00001000D4B1868FFF703FD00F0DFF900287B
:1006C0000DD1032C01D901200AE0013000222100C4
:1006D000404200F0CFF9054B1C60002000E00120F3
:1006E00010BDC046040000200000002008000020CB
:1006F00010B5064A136810210B4313600320FFF75F
:10070000CFFFFFF78FFE002010BDC0460020024043
:10071000034A1168034B1B785B1813607047C0468F
:100720003C01002004000020014B18687047C046BF
:100730003C01002070B5041E00D1B4E0836B002B97
:1007400000D180E0A36BDB0600D5A6E023689A68A1
:10075000042108001040114200D09EE0A26B5349D2
:100760000A400631FF310A43A263996803220A4016
:10077000012A6ED0DA6818218A43A1680A43DA6038
:10078000226813699B009B0861680B431361226810
:10079000D36847490B40D360237E9B03627ED2031C
:1007A0001343A17E4A031343A26A012A58D0802230
:1007B00052011343E26813432269022A52D00343D1
:1007C0002422A25C52001343E27E012A4CD0E2694B
:1007D000C221FF318A4202D0216A0A4313432168B1
:1007E000CA681A43CA60E26A802149058A420DD06C
:1007F000012A0BD0022A09D0032A07D0042A05D0E7
:10080000052A03D0062A01D0072A0AD120684169A7
:1008100007229143416120684169E56A2A400A4301
:1008200042612268D26823490A409A422BD0A36BC6
:1008300012229343023A1343A363E36B0F3A134329
:10084000E36301202EE0C36334228354FFF758FD95
:1008500078E71A68D2079AD4DA68120497D489E73D
:100860000200A6E70420AAE7002903D18022520251
:100870001343ACE7A26B20210A43A263E26B1F394A
:100880000A43E263A3E70023E363A36B03229343DA
:10089000023A1343A363002004E0A36B1022134326
:1008A000A363012070BD0120FCE7C046FDFEFFFFF1
:1008B0001902FEFFE7FF3F8330B583B00400002339
:1008C00001933433C35C012B00D178E0342301223F
:1008D000C254026893685B0767D44868394B9842F2
:1008E0004AD0936A0D680120A84003439362E36AEB
:1008F000072B19D8002B10D1886822685569072367
:100900002B40984209D050690723984350612068D2
:1009100042698D682B40134343610B681A00103AFB
:10092000012A06D9002045E0802252059342F4D0E6
:10093000E2E7254A1268102B09D08023DB0313431A
:10094000214A13600B68102B04D0002032E0802372
:100950001B04F4E71D4B18681D49FFF7B1FB83002A
:100960001B185B00019302E0019B013B0193019B7B
:10097000002BF9D100201DE0936A0D680120A840EA
:10098000834393620B681A00103A012A01D90020B0
:1009900010E00D4A1268102B05D00E4B13400A4A86
:1009A0001360002006E00C4BF8E7836B2022134312
:1009B0008363012034230022E25403B030BD0220BF
:1009C000FBE7C0460110000008270140000000209E
:1009D00040420F00FFFFBFFFFFFF7FFF70B5002801
:1009E00011DB8308134DC0339B005C590322104078
:1009F000C000FC3216008640B44389010A408240A0
:100A000022435A5170BD0F230340083B9B08063315
:100A10009B00094A944663445C6803221040C0006E
:100A2000FC3215008540AC4389010A4082402243D4
:100A30005A60E7E700E100E000ED00E001388023C4
:100A40005B0498420FD2094A50600948036A1B02AE
:100A50001B0AC02109060B4303620023936007337E
:100A60001360002070470120FCE7C04610E000E062
:100A700000ED00E010B5FFF7B1FF10BD10B5FFF7B6
:100A8000DDFF10BDF0B583B0002356E086685F003F
:100A90000324BC40A643CC68BC4034438460446813
:100AA00094434E683609012232409A402243426004
:100AB00053E0DE080836B600375805321A40920077
:100AC0000F249440A7430C69944022003A433250CB
:100AD00056E0032600E00026A64034003C430232E4
:100AE0009200444E9451444A9768EA433E00AE4314
:100AF0004C68E40201D53E002E433F4CA660E768F7
:100B00003E0016404C68A40201D53E002E433A4CEC
:100B1000E66067683E0016404C68A40301D53E00BD
:100B20002E43354C6660266832404C68E40301D59C
:100B30002A003243304C226001330C682200DA4034
:100B400056D001229A40250015401442F4D04E6838
:100B500003243440013C012C98D94C6803222240E4
:100B6000032A08D0C4685E000322B24094438A6816
:100B7000B2402243C2604C6803222240022A98D02D
:100B800004685E0003221700B740BC434F683A4038
:100B9000B240224302604C68C02292021442CBD081
:100BA000164CA66901221643A661A469224001924F
:100BB000019A9A08941CA4000E4EA75903241C40C5
:100BC000A4000F26A640B7439026F605B04282D077
:100BD0000B4EB04208D00B4EB04207D00A4EB04286
:100BE00000D176E7052677E7012675E7022673E749
:100BF00003B0F0BD000001400004014000100240BD
:100C00000004004800080048000C004870B582B09D
:100C1000041E00D12EE20368DB0726D5AE4B5A68CE
:100C20000C231340042B18D0AB4B5A680C231340F1
:100C3000082B0ED06368012B3CD0002B51D1A64B62
:100C40001A68A6490A401A601A68A5490A401A603B
:100C500036E0A14B5B68DB03ECD59F4B1B689B0325
:100C600003D56368002B00D107E223689B0772D588
:100C7000994B5B680C221A425DD0974B5A680C2343
:100C80001340082B53D0E368002B00D185E0924A33
:100C9000136801210B431360FFF746FD05008E4BDF
:100CA0001B689B0770D4FFF73FFD401B0228F6D955
:100CB0000320E0E1884A116880235B020B43136044
:100CC0006368002B25D0FFF72FFD0500824B1B68C2
:100CD0009B03CAD4FFF728FD401B6428F6D90320E4
:100CE000C9E1052B09D07C4B1A687C490A401A607F
:100CF0001A687B490A401A60E2E7774B196880223C
:100D0000D2020A431A601968802252020A431A600A
:100D1000D6E7FFF709FD05006F4B1B689B03A4D5C1
:100D2000FFF702FD401B6428F6D90320A3E16A4BBC
:100D30005B68DB03A7D4684B1B689B0703D5E3689C
:100D4000012B00D09BE164490B68F8229343226990
:100D5000D20013430B6023681B0744D5E369002BC3
:100D60002ED05D4A536A01210B435362FFF7DCFC2E
:100D70000500594B5B6A9B0735D4FFF7D5FC401B38
:100D80000228F6D9032076E153490B68F8229343F1
:100D90002269D20013430B60DDE74F4A136801213B
:100DA0008B431360FFF7C0FC05004B4B1B689B0790
:100DB000D1D5FFF7B9FC401B0228F6D903205AE130
:100DC000454A536A01218B435362FFF7ADFC05008E
:100DD000414B5B6A9B0706D5FFF7A6FC401B022828
:100DE000F6D9032047E123685B0700D480E03A4B43
:100DF000DB69DB001DD4384BDA69802149050A43E1
:100E0000DA61DB690B400193019B0125354B1B68BF
:100E1000DB0510D5A368012B21D0002B36D12E4B3A
:100E20001A6A01218A431A621A6A03318A431A62D2
:100E30001AE00025EAE72B4A116880235B000B4388
:100E40001360FFF771FC0600264B1B68DB05E1D43D
:100E5000FFF76AFC801B6428F6D903200BE11E4AC9
:100E6000136A01210B431362A368002B24D0FFF700
:100E70005BFC0600184B1B6A9B0737D4FFF754FC3A
:100E8000801B194B9842F5D90320F4E0052B09D0BB
:100E9000114B1A6A01218A431A621A6A03318A4382
:100EA0001A62E1E70C4B1A6A04210A431A621A6AB1
:100EB00003390A431A62D7E7FFF736FC0600064BF0
:100EC0001B6A9B0712D5FFF72FFC801B064B98422D
:100ED000F5D90320CFE0C04600100240FFFFFEFF1F
:100EE000FFFFFBFF0070004088130000012D33D08E
:100EF0002368DB0610D56369012B33D0053351D14C
:100F0000654A536B04218B435363536BF4318B431A
:100F1000A169C9000B435363236A002B00D1B0E0E1
:100F20005D4A51680C220A40082A00D18AE0022B4F
:100F30004FD0594A136859490B401360FFF7F4FB2F
:100F40000400554B1B689B017AD5FFF7EDFB001B96
:100F50000228F6D903208EE04F4AD36950490B404E
:100F6000D361C5E74C4B5A6B04210A435A635A6B51
:100F700003390A435A63FFF7D7FB0500464B5B6B07
:100F80009B0706D4FFF7D0FB401B0228F6D90320AD
:100F900071E041494B6BF8229343A269D20013439D
:100FA0004B63B9E73C4B5A6B04210A435A635A6BB3
:100FB00003398A435A63FFF7B7FB0500364B5B6B77
:100FC0009B07A9D5FFF7B0FB401B0228F6D90320E9
:100FD00051E0314A136831490B401360FFF7A4FB1D
:100FE00005002D4B1B689B0106D5FFF79DFB401BA1
:100FF0000228F6D903203EE0274BDA6A0F218A4304
:10100000E16A0A43DA625A6826490A40A16A606ABC
:1010100001430A435A601968802252040A431A6045
:10102000FFF782FB04001C4B1B689B0106D4FFF7F3
:101030007BFB001B0228F6D903201CE000201AE0ED
:10104000002018E0012B1ED0134B5A68D86A802369
:101050005B021340616A8B4217D10F230340E16AA0
:101060008B4214D1F0239B031A40A36A9A4210D1F9
:10107000002000E0012002B070BD0120FBE701204C
:10108000F9E70020F7E70120F5E70120F3E7012069
:10109000F1E70120EFE7C04600100240FFFFFFFE2E
:1010A000FFFFFFEFFFFFC2FF10B5104B5A680C2384
:1010B0001340082B01D00E4810BD910C0733194086
:1010C0000C48445C0949C96A0B400B49C95CD2030E
:1010D00004D50748FEF7F4FF6043EDE76201121BF9
:1010E00093019B1ADB001B191802E5E70010024070
:1010F00000127A00941E0008841E000870B50400D7
:101100000D00002800D17EE0434B1A6801231340F4
:101110008B420AD240490B68012293432B430B6058
:101120000B681A40AA4200D06FE023689A070ED5D8
:101130005B0705D5394A5168E023DB000B43536058
:10114000364A5368F0218B43A1680B4353602368F0
:10115000DB072DD56368012B1ED0022B22D02F4A2E
:101160001268920753D52D494A68032082431343DE
:101170004B60FFF7D9FA0600284B5B680C221A4037
:1011800063689B009A4213D0FFF7CEFA801B244B72
:101190009842F1D9032035E0204A12689203E2D444
:1011A00001202FE01D4A12689201DCD4012029E0C1
:1011B000194B1A6801231340AB4209D916490B6831
:1011C000012293432B430B600B681A40AA4220D1A3
:1011D00023685B0706D5114A536812490B40E16842
:1011E0000B435360FFF760FF0C4B5A6812090F2343
:1011F00013400D4AD35CD8400C4B18600320FFF716
:101200004FFA002070BD0120FCE70120FAE7012021
:10121000F8E70120F6E7C046002002400010024037
:1012200088130000FFF8FFFF741E00080000002074
:10123000014B18687047C0460000002010B5FFF74A
:10124000F7FF044B5A68120A07231340024AD35C83
:10125000D84010BD001002406C1E000870B582B06E
:1012600004000368DB0339D53E4BDB69DB004BD45C
:101270003C4BDA69802149050A43DA61DB690B409E
:101280000193019B0125384B1B68DB053ED5354B8F
:101290001A6AC0239B00110019401A4215D06368D6
:1012A000C022920013408B420FD02E4B1A6A2F4956
:1012B00011401E6A8020400230431862186A2C4E8A
:1012C000304018621962D20734D4264A136A27497B
:1012D0000B4061680B431362012D3AD02368DB0792
:1012E00006D5204A136B03218B43A1680B4313637C
:1012F00023689B0632D51B4A136B10218B43E16890
:101300000B43136300202AE00025BCE7164A11684E
:1013100080235B000B431360FFF706FA0600124BB5
:101320001B68DB05B3D4FFF7FFF9801B6428F6D9EF
:10133000032014E0FFF7F8F906000A4B1B6A9B072D
:10134000C3D4FFF7F1F9801B0A4B9842F5D903206B
:1013500005E0D36908490B40D361BFE7002002B024
:1013600070BDC0460010024000700040FFFCFFFF4F
:10137000FFFFFEFF88130000FFFFFFEF30B5056A97
:10138000036A012293430362426883697324A3437F
:101390000C681C4302239D438B682B43124DA842CB
:1013A00005D0124DA84202D0114DA84206D1082501
:1013B000AB431D00CB682B430425AB430A4DA84229
:1013C00005D00A4DA84202D0094DA84205D1094DC9
:1013D0002A404D6915438A692A43426084614A68FC
:1013E0004263036230BDC046002C0140004401400E
:1013F00000480140FFFCFFFF30B5046A036A164A4B
:10140000134003624268C3697325AB430D681D43F3
:10141000124B1C408B681B022343114CA04206D088
:10142000104CA0420AD0104CA0420FD106E00F4C45
:101430001C40CB681B0223430D4C23400D4C224023
:101440004C69240114438A69120122434260C56138
:101450004A68C263036230BDFFFEFFFFFFFDFFFF6E
:10146000002C01400044014000480140FFF7FFFF0D
:10147000FFFBFFFFFFCFFFFF30B5046A036A114A8D
:10148000134003624568C3690F4A13400A68120299
:101490001A430E4B1C408B681B0323430C4CA04289
:1014A00005D00C4CA04202D00B4CA04204D10B4CF6
:1014B0002C404D69AD0125434560C2614A68026414
:1014C000036230BDFFEFFFFFFF8CFFFFFFDFFFFF79
:1014D000002C01400044014000480140FFBFFFFFD5
:1014E00003681D4A904202D01C4A904203D17022E8
:1014F00093434A681343184A90420BD0174A9042CC
:1015000008D0174A904205D0164A904202D0164A97
:10151000904203D1154A1340CA6813438022934373
:101520004A69134303608B68C3620B6883620A4B8A
:10153000984205D00B4B984202D00B4B984201D1F8
:101540000B690363012343610269134203D00369FA
:101550000122934303617047002C014000040040C6
:10156000002000400044014000480140FFFCFFFF14
:1015700070B5041E26D03D23C35C002B1CD03D2536
:1015800002236355210001C9FFF7AAFF0123462268
:10159000A354083AA3540132A3540132A354013294
:1015A000A3540132A3540132A3540132A354013293
:1015B000A3546355002070BD3C330022C254FEF793
:1015C00053FFDCE70120F6E770B5026A036A1024D6
:1015D000A343036245688369144C23400C682402CA
:1015E0001C4320239A438B681B011343104A9042EB
:1015F00006D0104A90420BD00F4A904210D107E01B
:10160000802293431E00CB681B013343403A93432F
:101610000A4A15404A6992002A438D69AD00154374
:10162000456084614A688263036270BDFF8CFFFF7E
:10163000002C01400044014000480140FFF3FFFF3F
:1016400070B504000D003C23C35C012B00D16AE09F
:101650003C230121C154082A50D01CD8002A35D07F
:10166000042A16D100682900FFF7AEFF22689169AD
:1016700080231B010B439361226893692B490B4024
:10168000936121688B692A69120213438B610020E0
:1016900030E001202EE00C2A16D100682900FFF767
:1016A000EBFE2268D16980231B010B43D3612268C2
:1016B000D3691E490B40D3612168CB692A691202A4
:1016C0001343CB61002015E0012013E000682900DE
:1016D000FFF754FE2268936908210B439361226847
:1016E000936904398B4393612268936929690B4399
:1016F000936100203C230022E25470BD0068290061
:10170000FFF77AFE2268D36908210B43D361226870
:10171000D36904398B43D3612268D36929690B43A8
:10172000D3610020E6E70220E7E7C046FFFBFFFFAA
:1017300030B53C23C35C012B21D03C230122C25491
:1017400001330132C25403685C689D686E32944371
:101750000A6822435A6003680A4A934202D00A4A3E
:10176000934204D1802295434A682A439A603D23DC
:101770000122C254013B0022C254002030BD02208D
:10178000FCE7C046002C01400004004010B53C239B
:10179000C35C012B21D03C2201238354CB68104C25
:1017A00023408C6823430F4C23404C6823430E4C4A
:1017B00023400C6823430D4C23400C6923430C4CFD
:1017C00023404C6923430B4C2340C9690B430168F8
:1017D0004B6400238354002010BD0220FCE7C04668
:1017E000FFFCFFFFFFFBFFFFFFF7FFFFFFEFFFFF28
:1017F000FFDFFFFFFFBFFFFF10B5EFF3108C0122EB
:1018000082F3108801680B68124C23400B608CF344
:101810001088EFF3108C82F3108801688B68934373
:101820008B608CF31088036E012B06D0802320225E
:10183000C25000230366836610BDEFF3108183F36B
:101840001088026813683234FF34A343136081F3B5
:101850001088EBE7DFFEFFFF10B504008368026924
:10186000134342691343C269134301680A68484835
:10187000024013430B602268536846490B40E168FD
:101880000B435360A369226A1A4321688B6842485C
:10189000034013438B60414B1A6B03231340022B0D
:1018A0000AD005D8002B16D0012B16D1033304E043
:1018B000032B14D1013B00E00823E06980221202CF
:1018C00090420ED0042B58D039D8002B3ED0022B9A
:1018D00033D133483EE00023EFE71023EDE7102338
:1018E000EBE7042B26D007D8002B09D0022B01D11F
:1018F0002B4809E001203CE0082B05D0012038E00E
:10190000FFF79CFC00283BD0400061684B08C018E2
:10191000FEF7D6FB0200103A224B9A4232D882B22E
:101920000F239A434008083B034013432268D360C7
:1019300000201EE0FFF7B8FBE4E7012019E0082BC8
:1019400002D18020000205E0012012E0FFF776FCC2
:10195000002819D061684B081818FEF7B1FB020087
:10196000103A104B9A4211D823680004000CD8603A
:1019700000200023A366E36610BDFFF795FBE7E7B1
:101980000020F6E70120F4E70020F2E70120F0E76D
:10199000F369FFFFFFCFFFFFFFF4FFFF00100240DE
:1019A00000127A00EFFF0000436A1B0706D50268A9
:1019B00053682C490B40416B0B435360436ADB0770
:1019C00006D50268536828490B40816A0B4353606F
:1019D000436A9B0706D50268536824490B40C16AD5
:1019E0000B435360436A5B0706D50268536820497E
:1019F0000B40016B0B435360436ADB0606D502685C
:101A000093681C490B40816B0B439360436A9B06B0
:101A100006D50268936818490B40C16B0B4393606D
:101A2000436A5B060BD50268536814490B40016C8E
:101A30000B435360026C80235B039A420AD0436AD3
:101A40001B0606D5026853680D490B40816C0B4399
:101A500053607047026853680A490B40416C0B435E
:101A60005360ECE7FF7FFFFFFFFFFDFFFFFFFEFF7F
:101A7000FFFFFBFFFFEFFFFFFFDFFFFFFFFFEFFFBA
:101A8000FFFFF7FFFFFF9FFFF8B5CE46474680B543
:101A900006000D0017009946089B98463368DC69DC
:101AA0002C40641B63425C41BC4233D1434601334A
:101AB000F4D0FEF739FE4B46C01A40452FD84346B6
:101AC000002B2ED0326813685B07E7D5802DE5D058
:101AD000402DE3D0D3691B0710D4D3691B05DDD596
:101AE00080231B0113623000FFF786FE842320222F
:101AF000F2500C3B0022F25403200CE00824146244
:101B00003000FFF779FE8423F4500C3B0022F2549E
:101B1000012000E00020C0BCB946B046F8BD03205B
:101B2000F9E70320F7E7000030B583B00400842311
:101B30000022C250FEF7F8FD050023681B681B0752
:101B40000FD423681B685B0729D42023E367802216
:101B5000A350002323666366083AA354002003B011
:101B600030BD8021224B0093030000228903200016
:101B7000FFF78AFF0028E4D0EFF31081012383F3FD
:101B800010882268136880208343136081F31088D3
:101B90002023E36758330022E2547D38DFE78021B9
:101BA000134B00932B000022C9032000FFF76CFFAA
:101BB0000028CAD0EFF31080012282F31088216838
:101BC0000B680C4D2B400B6080F31088EFF31080F6
:101BD00082F3108821688B6893438B6080F31088B0
:101BE00080231F32E250083B0022E2540320B6E774
:101BF000FFFFFF01DFFEFFFF10B5041E2ED0C36FF5
:101C0000002B21D02423E3672268136801218B4332
:101C10001360636A002B1DD12000FFF71DFE012811
:101C200011D0226853680E490B40536022689368B4
:101C300008218B4393602268136807390B431360B4
:101C40002000FFF771FF10BD78330022C254FEF769
:101C5000C9FCD7E72000FFF7A7FEDDE70120F2E788
:101C6000FFF7FFFFF0B50500830749D0541E002A97
:101C700045D003000326CAB202E00135013C3ED341
:101C800001332A703342F8D1032C30D9FF220A40A5
:101C90001502AD182A04AD180F2C34D92700103FB7
:101CA0003F093E01B4461E001A0010366644156016
:101CB00055609560D56010329642F8D101373F01EA
:101CC000DB190F270C22274022403C00002A0ED0AF
:101CD0003E1FB608B400A4461A001C1D644420C26E
:101CE000A242FCD103240136B6009B193C40002CD3
:101CF00005D0C9B21C19197001339C42FBD1F0BD4B
:101D000003001400C0E72700E2E7C04670B50D4BA2
:101D10000D4D5E1BB610AB4205D0002408CD01343A
:101D20009847A642FAD800F095F8084B084D5E1B7C
:101D3000B610AB4205D0002408CD01349847A64226
:101D4000FAD870BDA41E0008A41E0008AC1E00082E
:101D5000A41E00087047C0467047C046034B10B52C
:101D6000002B02D0024800F005F810BD0000000072
:101D7000851D000810B5010000230022002000F09E
:101D800015F810BD70B5074C074D641BA41005D0A5
:101D9000013CA300EB589847002CF9D100F060F803
:101DA00070BDC046B01E0008AC1E0008F0B5D64697
:101DB0004F4646469846244BC0B5060018689A46DA
:101DC0000F009146FFF7C6FF204B1D68002D32D053
:101DD00053466C6818681F2C30DC002E0CD1631C35
:101DE0000234A4006B606751FFF7B6FF0020E0BC2F
:101DF000BA46B146A846F0BD49468822A300EB1872
:101E00009950C42149008C46AC446146873AA240AF
:101E10000968914611436246116084214246490097
:101E20005A50022EDBD129004A468D31FF310B6812
:101E300013430B60D3E7064D1D60C9E7FFF78CFF26
:101E400001204042D3E7C0460C000020440100209E
:101E500048010020F8B5C046F8BC08BC9E46704753
:0C1E6000F8B5C046F8BC08BC9E467047B0
:101E6C00000000000102030400000000000000005C
:101E7C00010203040607080901020304050607080A
:101E8C00090A0B0C0D0E0F100203040506070809B6
:081E9C000A0B0C0D0E0F1010D3
:081EA4005D1D00084D0200085D
:041EAC002102000807
:101EB00000127A0001000000040000004001002030
:040000050800064D9C
:00000001FF
