:020000040800F2
:100000000010002009070008BD040008BF04000814
:1000100000000000000000000000000000000000E0
:10002000000000000000000000000000C104000803
:100030000000000000000000C3040008C504000820
:100040005907000800000000590700085907000878
:100050005907000859070008590700085907000800
:100060000000000059070008590700085907000858
:100070005907000859070008590700080000000048
:1000800059070008000000000000000059070008A0
:100090000000000059070008590700085907000828
:1000A000000000005907000800000000CD0400080F
:1000B0000000000000000000000000000000000040
:1000C000002243088B4274D303098B425FD3030A97
:1000D0008B4244D3030B8B4228D3030C8B420DD3AA
:1000E000FF22090212BA030C8B4202D31212090238
:1000F00065D0030B8B4219D300E0090AC30B8B4276
:1001000001D3CB03C01A5241830B8B4201D38B0323
:10011000C01A5241430B8B4201D34B03C01A5241C8
:10012000030B8B4201D30B03C01A5241C30A8B420B
:1001300001D3CB02C01A5241830A8B4201D38B02F6
:10014000C01A5241430A8B4201D34B02C01A52419A
:10015000030A8B4201D30B02C01A5241CDD2C3090C
:100160008B4201D3CB01C01A524183098B4201D388
:100170008B01C01A524143098B4201D34B01C01A73
:10018000524103098B4201D30B01C01A5241C308EB
:100190008B4201D3CB00C01A524183088B4201D35A
:1001A0008B00C01A524143088B4201D34B00C01A46
:1001B0005241411A00D20146524110467047FFE7B2
:1001C00001B5002000F006F802BDC0460029F7D0B6
:1001D00076E770477047C0460448054B10B5834228
:1001E00003D0044B002B00D0984710BD1000002016
:1001F000100000200000000006480749091A8B1073
:10020000C90FC91810B5491003D0044B002B00D0FA
:10021000984710BD100000201000002000000000D2
:1002200010B5074C2378002B09D1FFF7D5FF054BFC
:10023000002B02D0044800E000BF0123237010BD52
:10024000100000200000000098250008054B10B5A4
:10025000002B03D00449054800E000BFFFF7CCFFA6
:1002600010BDC046000000001400002098250008C2
:1002700000B585B00C22002101A802F095F81E48B7
:100280001E4B0360002343608360C3600122026150
:1002900004214161037643768376C376C221FF3120
:1002A000C16103629E39FF394354826200F0A0FAB3
:1002B000002817D10023019380235B010293802340
:1002C0005B0503930C4801A900F054FB00280CD1F6
:1002D00001230193084801A900F04CFB002807D135
:1002E00005B000BD00F074F8E4E700F071F8EFE746
:1002F00000F06EF8F4E7C0462C0000200024014016
:1003000010B588B004001422002103A802F04CF8B4
:100310002268104B9A4201D008B010BD0E4B9A696A
:10032000802189000A439A619A690A400192019AE0
:100330005A69802189020A435A615B690B40029322
:10034000029B032303930493902003A9C00500F0AC
:100350004BFCE1E7002401400010024010B588B0DA
:100360001422002103A802F01FF8174B5A698021BC
:10037000C9030A435A615A690A400092009A5A69AD
:10038000802189020A435A615A690A400192019AFE
:100390005A698021C9020A435A615B690B40029382
:1003A000029B0A4C00220221200000F0E1FC022303
:1003B0000393013B049300230593069303A92000B4
:1003C00000F012FC08B010BD00100240000400480C
:1003D00072B6FEE710B594B03022002108A801F0F3
:1003E000E3FF10241022002104A801F0DDFF1022F9
:1003F0000021684601F0D8FF12230893113B0B93AC
:100400000D930C940E9401331093A0239B0312932D
:1004100008A800F0B3FC002817D107230493053B7C
:100420000593002306930793012104A800F01EFF03
:1004300000280CD10123009300230293684600F0AA
:10044000C5FF002805D114B010BDFFF7C1FFFFF7AD
:10045000BFFFFFF7BDFF000010B500F0A7F9FFF7E1
:10046000B9FFFFF77BFFFFF703FF00F079F800F01B
:10047000F1F805480368AF2292009A6232229A632B
:10048000042101F007FBFEE76C00002082B00A4B5C
:10049000996901221143996199690A400092009A71
:1004A000DA69802149050A43DA61DB690B4001936F
:1004B000019B02B07047C04600100240FEE7FEE715
:1004C0007047704710B500F081F910BD10B50248B3
:1004D00001F008FC10BDC046B400002070470000C9
:1004E00082B00268074B9A4201D002B07047064BB7
:1004F0009A69802109010A439A619B690B40019323
:10050000019BF2E7002C01400010024010B586B0BC
:1005100004001422002101A801F046FF22680E4BBE
:100520009A4201D006B010BD0C4B5A698021890255
:100530000A435A615B690B400093009B80239B0038
:100540000193FF3BFF3B02930593902001A9C00557
:1005500000F04AFBE6E7C046002C014000100240D4
:1005600000B597B01022002112A801F01DFF08224B
:10057000002110A801F018FF1C22002109A801F099
:1005800013FF2022002101A801F00EFF2F48304B5D
:100590000360AF239B004360002383606422C2603A
:1005A00003614361836101F0CBF800283BD18023D4
:1005B0005B011293254812A901F0DAF9002835D120
:1005C000224801F0E9F8002833D100231093119359
:1005D0001E4810A901F0D0FA00282DD160230993FC
:1005E00000230A930B930C930D930E930F931748CC
:1005F000042209A901F038F9002820D10023019331
:100600000293039304930593802292010692089328
:100610000E4801A901F0DEFA002813D10B48FFF7BC
:1006200075FF17B000BDFFF7D3FEC0E7FFF7D0FEA0
:10063000C6E7FFF7CDFEC8E7FFF7CAFECEE7FFF734
:10064000C7FEDBE7FFF7C4FEE8E7C0466C0000200A
:10065000002C014010B50C480C4B036096239B0105
:10066000436000238360C36003610C2242618361A5
:10067000C3610362436201F061FE002800D110BD36
:10068000FFF7A6FEFBE7C046B4000020003801409B
:1006900010B588B004001422002103A801F084FEE4
:1006A0002268174B9A4201D008B010BD154B9A69C9
:1006B0008021C9010A439A619A690A400192019A0C
:1006C0005A69802189020A435A615B690B4002938F
:1006D000029B0C2303930A3B049301330693023BD2
:1006E0000793902003A9C00500F07EFA00220021A4
:1006F0001B2000F01DFA1B2000F01EFAD4E7C046B4
:1007000000380140001002400D488546FFF7E6FE24
:100710000C480D490D4A002302E0D458C45004335C
:10072000C4188C42F9D30A4A0A4C002301E0136032
:100730000432A242FBD301F08BFEFFF78DFEFEE7F1
:10074000001000200000002010000020F425000808
:1007500010000020D8020020FEE7000010B50400C1
:100760000F4B1978FA208000FFF7AAFC01000D4B0F
:100770001868FFF7A5FC00F0EBF900280DD1032C59
:1007800001D901200AE0013000222100404200F09E
:10079000CFF9054B1C60002000E0012010BDC046D1
:1007A00004000020000000200800002010B5064AC8
:1007B000136810210B4313600320FFF7CFFFFFF7EF
:1007C00065FE002010BDC04600200240034A1168AB
:1007D000034B1B785B1813607047C0463C01002038
:1007E00004000020014B18687047C0463C010020FF
:1007F00070B5041E00D1B4E0836B002B00D180E003
:10080000A36BDB0600D5A6E023689A6804210800E4
:100810001040114200D09EE0A26B53490A400631BD
:10082000FF310A43A263996803220A40012A6ED06D
:10083000DA6818218A43A1680A43DA6022681369DA
:100840009B009B0861680B4313612268D36847498A
:100850000B40D360237E9B03627ED2031343A17EB1
:100860004A031343A26A012A58D08022520113433B
:10087000E26813432269022A52D003432422A25C75
:1008800052001343E27E012A4CD0E269C221FF31BB
:100890008A4202D0216A0A4313432168CA681A4374
:1008A000CA60E26A802149058A420DD0012A0BD034
:1008B000022A09D0032A07D0042A05D0052A03D02A
:1008C000062A01D0072A0AD12068416907229143EC
:1008D000416120684169E56A2A400A434261226811
:1008E000D26823490A409A422BD0A36B1222934329
:1008F000023A1343A363E36B0F3A1343E36301200C
:100900002EE0C36334228354FFF7FAFC78E71A68B9
:10091000D2079AD4DA68120497D489E70200A6E7CE
:100920000420AAE7002903D1802252021343ACE736
:10093000A26B20210A43A263E26B1F390A43E263E0
:10094000A3E70023E363A36B03229343023A134319
:10095000A363002004E0A36B10221343A3630120D0
:1009600070BD0120FCE7C046FDFEFFFF1902FEFF3F
:10097000E7FF3F8330B583B0040000230193343395
:10098000C35C012B00D178E034230122C2540268F9
:1009900093685B0767D44868394B98424AD0936A9A
:1009A0000D680120A84003439362E36A072B19D81E
:1009B000002B10D188682268556907232B40984284
:1009C00009D05069072398435061206842698D68B7
:1009D0002B40134343610B681A00103A012A06D9D1
:1009E000002045E0802252059342F4D0E2E7254AF8
:1009F0001268102B09D08023DB031343214A1360B4
:100A00000B68102B04D0002032E080231B04F4E795
:100A10001D4B18681D49FFF753FB83001B185B0033
:100A2000019302E0019B013B0193019B002BF9D153
:100A300000201DE0936A0D680120A8408343936263
:100A40000B681A00103A012A01D9002010E00D4A63
:100A50001268102B05D00E4B13400A4A1360002079
:100A600006E00C4BF8E7836B2022134383630120DD
:100A700034230022E25403B030BD0220FBE7C0461D
:100A800001100000082701400000002040420F0034
:100A9000FFFFBFFFFFFF7FFF70B5002811DB83085A
:100AA000134DC0339B005C5903221040C000FC3240
:100AB00016008640B44389010A40824022435A51BD
:100AC00070BD0F230340083B9B0806339B00094A77
:100AD000944663445C6803221040C000FC32150059
:100AE0008540AC4389010A40824022435A60E7E7CF
:100AF00000E100E000ED00E0013880235B04984253
:100B00000FD2094A50600948036A1B021B0AC02120
:100B100009060B4303620023936007331360002030
:100B200070470120FCE7C04610E000E000ED00E067
:100B300010B5FFF7B1FF10BD002805DB1F220240F2
:100B400001239340014A13607047C04600E100E072
:100B500010B5FFF7D1FF10BD10B52123C35C022BE8
:100B600006D0042383631C330022C254012010BD2D
:100B7000026813680E218B43136001680A68012321
:100B80009A430A60016CC26B1C008C4054602122A5
:100B900083541F330022C2540020E8E710B52123FC
:100BA000C35C022B03D004238363012010BD0268C1
:100BB00013680E218B43136001680A6801239A436E
:100BC0000A60016CC26B1C008C405460212283546B
:100BD0001F330022C254436B002B02D098470020E1
:100BE000E4E70020E2E70000F0B583B0002356E020
:100BF00086685F000324BC40A643CC68BC403443F5
:100C00008460446894434E683609012232409A4019
:100C10002243426053E0DE080836B60037580532FA
:100C20001A4092000F249440A7430C69944022007C
:100C30003A43325056E0032600E00026A640340036
:100C40003C4302329200444E9451444A9768EA432E
:100C50003E00AE434C68E40201D53E002E433F4CBB
:100C6000A660E7683E0016404C68A40201D53E002D
:100C70002E433A4CE66067683E0016404C68A40379
:100C800001D53E002E43354C6660266832404C68E4
:100C9000E40301D52A003243304C226001330C6852
:100CA0002200DA4056D001229A4025001540144215
:100CB000F4D04E6803243440013C012C98D94C6890
:100CC00003222240032A08D0C4685E000322B240F7
:100CD00094438A68B2402243C2604C680322224097
:100CE000022A98D004685E0003221700B740BC4374
:100CF0004F683A40B240224302604C68C0229202E0
:100D00001442CBD0164CA66901221643A661A469F1
:100D100022400192019A9A08941CA4000E4EA759F1
:100D200003241C40A4000F26A640B7439026F605D6
:100D3000B04282D00B4EB04208D00B4EB04207D02A
:100D40000A4EB04200D176E7052677E7012675E71F
:100D5000022673E703B0F0BD00000140000401402B
:100D6000001002400004004800080048000C004841
:100D7000002A01D0816170478162FCE770B582B0C2
:100D8000041E00D12EE20368DB0726D5AE4B5A685D
:100D90000C231340042B18D0AB4B5A680C23134080
:100DA000082B0ED06368012B3CD0002B51D1A64BF1
:100DB0001A68A6490A401A601A68A5490A401A60CA
:100DC00036E0A14B5B68DB03ECD59F4B1B689B03B4
:100DD00003D56368002B00D107E223689B0772D517
:100DE000994B5B680C221A425DD0974B5A680C23D2
:100DF0001340082B53D0E368002B00D185E0924AC2
:100E0000136801210B431360FFF7ECFC05008E4BC8
:100E10001B689B0770D4FFF7E5FC401B0228F6D93E
:100E20000320E0E1884A116880235B020B431360D2
:100E30006368002B25D0FFF7D5FC0500824B1B68AB
:100E40009B03CAD4FFF7CEFC401B6428F6D90320CD
:100E5000C9E1052B09D07C4B1A687C490A401A600D
:100E60001A687B490A401A60E2E7774B19688022CA
:100E7000D2020A431A601968802252020A431A6099
:100E8000D6E7FFF7AFFC05006F4B1B689B03A4D5AB
:100E9000FFF7A8FC401B6428F6D90320A3E16A4BA6
:100EA0005B68DB03A7D4684B1B689B0703D5E3682B
:100EB000012B00D09BE164490B68F822934322691F
:100EC000D20013430B6023681B0744D5E369002B52
:100ED0002ED05D4A536A01210B435362FFF782FC17
:100EE0000500594B5B6A9B0735D4FFF77BFC401B21
:100EF0000228F6D9032076E153490B68F822934380
:100F00002269D20013430B60DDE74F4A13680121C9
:100F10008B431360FFF766FC05004B4B1B689B0778
:100F2000D1D5FFF75FFC401B0228F6D903205AE118
:100F3000454A536A01218B435362FFF753FC050076
:100F4000414B5B6A9B0706D5FFF74CFC401B022810
:100F5000F6D9032047E123685B0700D480E03A4BD1
:100F6000DB69DB001DD4384BDA69802149050A436F
:100F7000DA61DB690B400193019B0125354B1B684E
:100F8000DB0510D5A368012B21D0002B36D12E4BC9
:100F90001A6A01218A431A621A6A03318A431A6261
:100FA0001AE00025EAE72B4A116880235B000B4317
:100FB0001360FFF717FC0600264B1B68DB05E1D426
:100FC000FFF710FC801B6428F6D903200BE11E4AB2
:100FD000136A01210B431362A368002B24D0FFF78F
:100FE00001FC0600184B1B6A9B0737D4FFF7FAFB7E
:100FF000801B194B9842F5D90320F4E0052B09D04A
:10100000114B1A6A01218A431A621A6A03318A4310
:101010001A62E1E70C4B1A6A04210A431A621A6A3F
:1010200003390A431A62D7E7FFF7DCFB0600064BD9
:101030001B6A9B0712D5FFF7D5FB801B064B984216
:10104000F5D90320CFE0C04600100240FFFFFEFFAD
:10105000FFFFFBFF0070004088130000012D33D01C
:101060002368DB0610D56369012B33D0053351D1DA
:10107000654A536B04218B435363536BF4318B43A9
:10108000A169C9000B435363236A002B00D1B0E070
:101090005D4A51680C220A40082A00D18AE0022BDE
:1010A0004FD0594A136859490B401360FFF79AFB18
:1010B0000400554B1B689B017AD5FFF793FB001B7F
:1010C0000228F6D903208EE04F4AD36950490B40DD
:1010D000D361C5E74C4B5A6B04210A435A635A6BE0
:1010E00003390A435A63FFF77DFB0500464B5B6BF0
:1010F0009B0706D4FFF776FB401B0228F6D9032096
:1011000071E041494B6BF8229343A269D20013432B
:101110004B63B9E73C4B5A6B04210A435A635A6B41
:1011200003398A435A63FFF75DFB0500364B5B6B5F
:101130009B07A9D5FFF756FB401B0228F6D90320D1
:1011400051E0314A136831490B401360FFF74AFB05
:1011500005002D4B1B689B0106D5FFF743FB401B89
:101160000228F6D903203EE0274BDA6A0F218A4392
:10117000E16A0A43DA625A6826490A40A16A606A4B
:1011800001430A435A601968802252040A431A60D4
:10119000FFF728FB04001C4B1B689B0106D4FFF7DC
:1011A00021FB001B0228F6D903201CE000201AE0D6
:1011B000002018E0012B1ED0134B5A68D86A8023F8
:1011C0005B021340616A8B4217D10F230340E16A2F
:1011D0008B4214D1F0239B031A40A36A9A4210D188
:1011E000002000E0012002B070BD0120FBE70120DB
:1011F000F9E70020F7E70120F5E70120F3E70120F8
:10120000F1E70120EFE7C04600100240FFFFFFFEBC
:10121000FFFFFFEFFFFFC2FF10B5104B5A680C2312
:101220001340082B01D00E4810BD910C0733194014
:101230000C48445C0949C96A0B400B49C95CD2039C
:1012400004D50748FEF73CFF6043EDE76201121B3F
:1012500093019B1ADB001B191802E5E700100240FE
:1012600000127A00D8250008C825000870B50400CF
:101270000D00002800D17EE0434B1A680123134083
:101280008B420AD240490B68012293432B430B60E7
:101290000B681A40AA4200D06FE023689A070ED567
:1012A0005B0705D5394A5168E023DB000B435360E7
:1012B000364A5368F0218B43A1680B43536023687F
:1012C000DB072DD56368012B1ED0022B22D02F4ABD
:1012D0001268920753D52D494A680320824313436D
:1012E0004B60FFF77FFA0600284B5B680C221A4020
:1012F00063689B009A4213D0FFF774FA801B244B5B
:101300009842F1D9032035E0204A12689203E2D4D2
:1013100001202FE01D4A12689201DCD4012029E04F
:10132000194B1A6801231340AB4209D916490B68BF
:10133000012293432B430B600B681A40AA4220D131
:1013400023685B0706D5114A536812490B40E168D0
:101350000B435360FFF760FF0C4B5A6812090F23D1
:1013600013400D4AD35CD8400C4B18600320FFF7A4
:10137000F5F9002070BD0120FCE70120FAE701200B
:10138000F8E70120F6E7C0460020024000100240C6
:1013900088130000FFF8FFFFB825000800000020B8
:1013A000014B18687047C0460000002010B5FFF7D9
:1013B000F7FF044B5A68120A07231340024AD35C12
:1013C000D84010BD00100240B025000870B582B0B2
:1013D00004000368DB0339D53E4BDB69DB004BD4EB
:1013E0003C4BDA69802149050A43DA61DB690B402D
:1013F0000193019B0125384B1B68DB053ED5354B1E
:101400001A6AC0239B00110019401A4215D0636864
:10141000C022920013408B420FD02E4B1A6A2F49E4
:1014200011401E6A8020400230431862186A2C4E18
:10143000304018621962D20734D4264A136A274909
:101440000B4061680B431362012D3AD02368DB0720
:1014500006D5204A136B03218B43A1680B4313630A
:1014600023689B0632D51B4A136B10218B43E1681E
:101470000B43136300202AE00025BCE7164A1168DD
:1014800080235B000B431360FFF7ACF90600124B9F
:101490001B68DB05B3D4FFF7A5F9801B6428F6D9D8
:1014A000032014E0FFF79EF906000A4B1B6A9B0716
:1014B000C3D4FFF797F9801B0A4B9842F5D9032054
:1014C00005E0D36908490B40D361BFE7002002B0B3
:1014D00070BDC0460010024000700040FFFCFFFFDE
:1014E000FFFFFEFF88130000FFFFFFEF30B5056A26
:1014F000036A012293430362426883697324A3430E
:101500000C681C4302239D438B682B43124DA84259
:1015100005D0124DA84202D0114DA84206D108258F
:10152000AB431D00CB682B430425AB430A4DA842B7
:1015300005D00A4DA84202D0094DA84205D1094D57
:101540002A404D6915438A692A43426084614A688A
:101550004263036230BDC046002C0140004401409C
:1015600000480140FFFCFFFF30B5046A036A164AD9
:10157000134003624268C3697325AB430D681D4382
:10158000124B1C408B681B022343114CA04206D017
:10159000104CA0420AD0104CA0420FD106E00F4CD4
:1015A0001C40CB681B0223430D4C23400D4C2240B2
:1015B0004C69240114438A69120122434260C561C7
:1015C0004A68C263036230BDFFFEFFFFFFFDFFFFFD
:1015D000002C01400044014000480140FFF7FFFF9C
:1015E000FFFBFFFFFFCFFFFF30B5046A036A114A1C
:1015F000134003624568C3690F4A13400A68120228
:101600001A430E4B1C408B681B0323430C4CA04217
:1016100005D00C4CA04202D00B4CA04204D10B4C84
:101620002C404D69AD0125434560C2614A680264A2
:10163000036230BDFFEFFFFFFF8CFFFFFFDFFFFF07
:10164000002C01400044014000480140FFBFFFFF63
:1016500030B5036A046A0125AC4304628469EF353E
:10166000AC43120122430A24A3430B438261036269
:1016700030BD000030B5036A046A1025AC43046233
:101680008469054D2C4012032243A024A343090181
:1016900019438261016230BDFF0FFFFF8368702232
:1016A00093430B43693A13438360704770470000CC
:1016B00003681D4A904202D01C4A904203D1702216
:1016C00093434A681343184A90420BD0174A9042FA
:1016D00008D0174A904205D0164A904202D0164AC6
:1016E000904203D1154A1340CA68134380229343A2
:1016F0004A69134303608B68C3620B6883620A4BB9
:10170000984205D00B4B984202D00B4B984201D126
:101710000B690363012343610269134203D0036928
:101720000122934303617047002C014000040040F4
:10173000002000400044014000480140FFFCFFFF42
:1017400070B5041E26D03D23C35C002B1CD03D2564
:1017500002236355210001C9FFF7AAFF0123462296
:10176000A354083AA3540132A3540132A3540132C2
:10177000A3540132A3540132A3540132A3540132C1
:10178000A3546355002070BD3C330022C254FEF7C1
:10179000A7FEDCE70120F6E770B5041E26D03D2346
:1017A000C35C002B1CD03D2502236355210001C9D9
:1017B000FFF77EFF01234622A354083AA3540132C7
:1017C000A3540132A3540132A3540132A354013271
:1017D000A3540132A3540132A3546355002070BDB9
:1017E0003C330022C254FFF761FFDCE70120F6E73B
:1017F00070B5026A036A1024A343036245688369D3
:10180000144C23400C6824021C4320239A438B6809
:101810001B011343104A904206D0104A90420BD04D
:101820000F4A904210D107E0802293431E00CB68FC
:101830001B013343403A93430A4A15404A699200D8
:101840002A438D69AD001543456084614A6882630F
:10185000036270BDFF8CFFFF002C0140004401407B
:1018600000480140FFF3FFFF70B504000D003C236A
:10187000C35C012B00D16AE03C230121C154082A3A
:1018800050D01CD8002A35D0042A16D1006829006F
:10189000FFF7AEFF2268916980231B010B43936120
:1018A000226893692B490B40936121688B692A69EF
:1018B000120213438B61002030E001202EE00C2A3D
:1018C00016D100682900FFF78FFE2268D1698023B6
:1018D0001B010B43D3612268D3691E490B40D361BE
:1018E0002168CB692A6912021343CB61002015E0FD
:1018F000012013E000682900FFF7F8FD22689369D2
:1019000008210B4393612268936904398B439361E7
:101910002268936929690B43936100203C230022CC
:10192000E25470BD00682900FFF71EFE2268D369EB
:1019300008210B43D3612268D36904398B43D361F7
:101940002268D36929690B43D3610020E6E70220AE
:10195000E7E7C046FFFBFFFF30B58468034D2C402E
:101960001B0213430B432343836030BDFF00FFFF83
:1019700010B504000B003C22825C012A00D177E004
:101980003C220121815401320131815401688A686D
:10199000384802408A60196860294FD023D840290E
:1019A00057D011D8202904D00AD8002901D01029F5
:1019B00004D12068FFF772FE00202AE0012028E011
:1019C0003029F6D0012024E050290AD15968DA687C
:1019D0002068FFF73DFE20685021FFF75FFE0020E2
:1019E00017E0012015E08022520191423CD0802274
:1019F0009201914214D0702938D199685A68DB68F5
:101A00002068FFF7A9FF2268936877210B43936052
:101A100000203D230122E254013B0022E25410BD8C
:101A200099685A68DB682068FFF796FF226891681A
:101A30008023DB010B4393600020EAE75968DA68F2
:101A40002068FFF717FE20686021FFF727FE0020BF
:101A5000DFE75968DA682068FFF7FAFD206840215F
:101A6000FFF71CFE0020D4E70020D2E70120D0E7DA
:101A70000220D4E78800FFFF10B51F23194001247E
:101A80008C40036AA3430362036A8A4013430362E0
:101A900010BD000010B5040000292CD13E23C35C0A
:101AA000013B5A1E9341DBB2002B58D100293BD198
:101AB0003E330222E25420680122FFF7DDFF236853
:101AC000294A934205D0294A934202D0284A934298
:101AD00004D1596C802212020A435A642368224AB4
:101AE000934231D0234A93422ED01A6801210A43EF
:101AF0001A60002034E0042908D008290DD04123C1
:101B0000C35C013B5A1E9341DBB2CDE73F23C35C6C
:101B1000013B5A1E9341DBB2C6E74023C35C013B45
:101B20005A1E9341DBB2BFE7042905D0082907D02C
:101B300041230222E254BEE73F230222E254BAE7E5
:101B400040230222E254B6E7996807220A40062A97
:101B500007D01A6801210A431A60002000E0012022
:101B600010BD0020FCE7C046002C014000440140AD
:101B7000004801400004004030B53C23C35C012B09
:101B800021D03C230122C25401330132C2540368E4
:101B90005C689D686E3294430A6822435A60036809
:101BA0000A4A934202D00A4A934204D180229543C2
:101BB0004A682A439A603D230122C254013B002215
:101BC000C254002030BD0220FCE7C046002C01407A
:101BD0000004004010B53C23C35C012B21D03C2203
:101BE00001238354CB68104C23408C6823430F4C53
:101BF00023404C6823430E4C23400C6823430D4C78
:101C000023400C6923430C4C23404C6923430B4C69
:101C10002340C9690B4301684B64002383540020AF
:101C200010BD0220FCE7C046FFFCFFFFFFFBFFFFEB
:101C3000FFF7FFFFFFEFFFFFFFDFFFFFFFBFFFFF2C
:101C400010B5EFF3108C012282F3108801680B6845
:101C5000124C23400B608CF31088EFF3108C82F34E
:101C6000108801688B6893438B608CF31088036E37
:101C7000012B06D080232022C250002303668366F6
:101C800010BDEFF3108183F31088026813683234BB
:101C9000FF34A343136081F31088EBE7DFFEFFFFFF
:101CA000704710B5EFF31081012383F310880268A9
:101CB00013684024A343136081F310882023C36773
:101CC0000023C366FFF7ECFF10BD704710B5406AF4
:101CD00000235A228352083A8352FFF7F6FF10BDC1
:101CE0007047000070B504000268D36911689068FD
:101CF000A54D2B4209D198060FD588060DD5A36EA8
:101D0000002B18D02000984715E001252E00064032
:101D1000054211D19D4801420ED1206E012800D10B
:101D20008DE01A0602D50A0600D522E15B0602D52F
:101D3000490600D524E170BDD80707D5C80505D5EB
:101D400001251562842022582A4322509A0709D57A
:101D5000002E07D02268022010628230225804250B
:101D60002A4322505A0709D5002E07D022680420A2
:101D700010628030225802252A4322501A070AD5C1
:101D80008A0601D4002E06D0226808251562842018
:101D900022582A4322501A050AD54A0108D522683A
:101DA0008020000110628420225820252A432250DE
:101DB0008422A258002ABED09B0606D5890604D5E7
:101DC000A36E002B01D0200098478423E25823689B
:101DD0009B685B0602D42823134229D02000FFF71A
:101DE0002FFF23689B685B061ED5EFF3108101234C
:101DF00083F310882268936840208343936081F3C3
:101E00001088636F002B0BD0614A5A63606FFEF736
:101E1000C5FE002800D18EE7606F436B98478AE7C4
:101E20002000FFF752FF86E72000FFF74EFF82E712
:101E30002000FFF74AFF84230022E2507BE7D80608
:101E400000D46EE7C80600D46BE710231362236842
:101E50009B685B0652D5626F13685B689BB2002B70
:101E600000D168E75821615A994200D863E75A21A6
:101E700063529369202B0BD1022363665633E15AD8
:101E80000233E35AC91A89B22000FFF729FF52E74B
:101E9000EFF31080012383F3108821680A683D4D19
:101EA0002A400A6080F31088EFF3108083F31088D3
:101EB00021688A689A438A6080F31088EFF3108063
:101EC00083F3108821688A684235FF35AA438A6007
:101ED00080F3108880222021A15000222266EFF397
:101EE000108183F3108822681368102083431360E5
:101EF00081F31088606FFEF72FFEBDE75823E35A89
:101F00005A22A15A591A89B2A35A9BB2002B00D166
:101F100011E7002900D10EE7EFF31085012383F3C9
:101F20001088206802681C4E3240026085F31088D9
:101F3000EFF3108583F31088206882689A438260EB
:101F400085F3108880222020A05000222266A266FD
:101F5000EFF3108083F31088226813681025AB43D9
:101F6000136080F31088022363662000FFF7B8FE39
:101F7000E1E6E36E002B00D1DDE620009847DAE6CB
:101F80002000FFF78EFED6E60F08000020010004B7
:101F9000CD1C0008FFFEFFFFDFFEFFFF10B50400B1
:101FA00083680269134342691343C269134301689A
:101FB0000A684848024013430B6022685368464948
:101FC0000B40E1680B435360A369226A1A432168FE
:101FD0008B684248034013438B60414B1A6B0323C9
:101FE0001340022B0AD005D8002B16D0012B16D196
:101FF000033304E0032B14D1013B00E00823E06924
:102000008022120290420ED0042B58D039D8002BD7
:102010003ED0022B33D133483EE00023EFE71023BC
:10202000EDE71023EBE7042B26D007D8002B09D0CF
:10203000022B01D12B4809E001203CE0082B05D000
:10204000012038E0FFF7B2F900283BD0400061687A
:102050004B08C018FEF734F80200103A224B9A429F
:1020600032D882B20F239A434008083B03401343FF
:102070002268D36000201EE0FFF7CEF8E4E70120DD
:1020800019E0082B02D18020000205E0012012E0B7
:10209000FFF78CF9002819D061684B081818FEF773
:1020A0000FF80200103A104B9A4211D8236800042E
:1020B000000CD86000200023A366E36610BDFFF784
:1020C000ABF8E7E70020F6E70120F4E70020F2E7AD
:1020D0000120F0E7F369FFFFFFCFFFFFFFF4FFFFF1
:1020E0000010024000127A00EFFF0000436A1B0755
:1020F00006D5026853682C490B40416B0B43536073
:10210000436ADB0706D50268536828490B40816A99
:102110000B435360436A9B0706D502685368244902
:102120000B40C16A0B435360436A5B0706D50268E4
:10213000536820490B40016B0B435360436ADB0635
:1021400006D5026893681C490B40816B0B43936072
:10215000436A9B0606D50268936818490B40C16B19
:102160000B439360436A5B060BD5026853681449BE
:102170000B40016C0B435360026C80235B039A425B
:102180000AD0436A1B0606D5026853680D490B4006
:10219000816C0B4353607047026853680A490B40D7
:1021A000416C0B435360ECE7FF7FFFFFFFFFFDFF38
:1021B000FFFFFEFFFFFFFBFFFFEFFFFFFFDFFFFF64
:1021C000FFFFEFFFFFFFF7FFFFFF9FFFF8B5CE46D2
:1021D000474680B506000D0017009946089B9846B3
:1021E0003368DC692C40641B63425C41BC4233D1E0
:1021F00043460133F4D0FEF7F5FA4B46C01A40458A
:102200002FD84346002B2ED0326813685B07E7D5E2
:10221000802DE5D0402DE3D0D3691B0710D4D369BE
:102220001B05DDD580231B0113623000FFF708FD7D
:1022300084232022F2500C3B0022F25403200CE0B5
:10224000082414623000FFF7FBFC8423F4500C3B9D
:102250000022F254012000E00020C0BCB946B04684
:10226000F8BD0320F9E70320F7E7000030B583B09D
:10227000040084230022C250FEF7B4FA050023684C
:102280001B681B070FD423681B685B0729D4202316
:10229000E3678022A350002323666366083AA354B1
:1022A000002003B030BD8021224B009303000022A8
:1022B00089032000FFF78AFF0028E4D0EFF31081A4
:1022C000012383F3108822681368802083431360FE
:1022D00081F310882023E36758330022E2547D38CD
:1022E000DFE78021134B00932B000022C90320005D
:1022F000FFF76CFF0028CAD0EFF31080012282F3B1
:10230000108821680B680C4D2B400B6080F31088FF
:10231000EFF3108082F3108821688B6893438B6001
:1023200080F3108880231F32E250083B0022E254E1
:102330000320B6E7FFFFFF01DFFEFFFF10B5041E1D
:102340002ED0C36F002B21D02423E36722681368AB
:1023500001218B431360636A002B1DD12000FFF71E
:102360001DFE012811D0226853680E490B405360AE
:102370002268936808218B439360226813680739A9
:102380000B4313602000FFF771FF10BD783300226C
:10239000C254FEF77DF9D7E72000FFF7A7FEDDE77F
:1023A0000120F2E7FFF7FFFFF0B50500830749D0F2
:1023B000541E002A45D003000326CAB202E00135AC
:1023C000013C3ED301332A703342F8D1032C30D97B
:1023D000FF220A401502AD182A04AD180F2C34D97B
:1023E0002700103F3F093E01B4461E001A00103678
:1023F0006644156055609560D56010329642F8D1FC
:1024000001373F01DB190F270C22274022403C00F7
:10241000002A0ED03E1FB608B400A4461A001C1DA8
:10242000644420C2A242FCD103240136B6009B19A9
:102430003C40002C05D0C9B21C19197001339C42D4
:10244000FBD1F0BD03001400C0E72700E2E7C0465F
:1024500070B50D4B0D4D5E1BB610AB4205D0002480
:1024600008CD01349847A642FAD800F095F8084BF9
:10247000084D5E1BB610AB4205D0002408CD0134D8
:102480009847A642FAD870BDE8250008E82500085C
:10249000F0250008E82500087047C0467047C04690
:1024A000034B10B5002B02D0024800F005F810BD18
:1024B00000000000C924000810B50100002300221C
:1024C000002000F015F810BD70B5074C074D641BD7
:1024D000A41005D0013CA300EB589847002CF9D17B
:1024E00000F060F870BDC046F4250008F025000833
:1024F000F0B5D6464F4646469846244BC0B5060032
:1025000018689A460F009146FFF7C6FF204B1D68DA
:10251000002D32D053466C6818681F2C30DC002E1A
:102520000CD1631C0234A4006B606751FFF7B6FF47
:102530000020E0BCBA46B146A846F0BD4946882214
:10254000A300EB189950C42149008C46AC44614665
:10255000873AA2400968914611436246116084217E
:10256000424649005A50022EDBD129004A468D319D
:10257000FF310B6813430B60D3E7064D1D60C9E7BD
:10258000FFF78CFF01204042D3E7C0460C0000203B
:102590004401002048010020F8B5C046F8BC08BC42
:1025A0009E467047F8B5C046F8BC08BC9E467047CA
:1025B0000000000001020304000000000000000011
:1025C00001020304060708090102030405060708BF
:1025D000090A0B0C0D0E0F1002030405060708096B
:0825E0000A0B0C0D0E0F101088
:0825E800A12400084D020008C7
:0425F00021020008BC
:1025F40000127A00010000000400000040010020E5
:0400000508000709DF
:00000001FF
